{
  "contractName": "ActivityLogger",
  "abi": [
    {
      "anonymous": false,
      "inputs": [
        {
          "indexed": false,
          "internalType": "uint256",
          "name": "activityId",
          "type": "uint256"
        },
        {
          "indexed": false,
          "internalType": "string",
          "name": "inputData",
          "type": "string"
        },
        {
          "indexed": false,
          "internalType": "string",
          "name": "outputData",
          "type": "string"
        }
      ],
      "name": "ActivityLogged",
      "type": "event"
    },
    {
      "inputs": [
        {
          "internalType": "uint256",
          "name": "",
          "type": "uint256"
        }
      ],
      "name": "activities",
      "outputs": [
        {
          "internalType": "string",
          "name": "inputData",
          "type": "string"
        },
        {
          "internalType": "string",
          "name": "outputData",
          "type": "string"
        }
      ],
      "stateMutability": "view",
      "type": "function"
    },
    {
      "inputs": [],
      "name": "activityCount",
      "outputs": [
        {
          "internalType": "uint256",
          "name": "",
          "type": "uint256"
        }
      ],
      "stateMutability": "view",
      "type": "function"
    },
    {
      "inputs": [
        {
          "internalType": "string",
          "name": "_inputData",
          "type": "string"
        },
        {
          "internalType": "string",
          "name": "_outputData",
          "type": "string"
        }
      ],
      "name": "logActivity",
      "outputs": [
        {
          "internalType": "uint256",
          "name": "",
          "type": "uint256"
        }
      ],
      "stateMutability": "nonpayable",
      "type": "function"
    },
    {
      "inputs": [
        {
          "internalType": "uint256",
          "name": "_activityId",
          "type": "uint256"
        }
      ],
      "name": "getActivity",
      "outputs": [
        {
          "internalType": "string",
          "name": "",
          "type": "string"
        },
        {
          "internalType": "string",
          "name": "",
          "type": "string"
        }
      ],
      "stateMutability": "view",
      "type": "function"
    }
  ],
  "bytecode": "0x6080604052600060015534801561001557600080fd5b50610909806100256000396000f3fe608060405234801561001057600080fd5b506004361061004c5760003560e01c80630d1657e814610051578063922635d814610082578063999799cf146100b3578063e6240deb146100e3575b600080fd5b61006b600480360381019061006691906105d2565b610101565b604051610079929190610643565b60405180910390f35b61009c600480360381019061009791906105d2565b610235565b6040516100aa929190610643565b60405180910390f35b6100cd60048036038101906100c89190610566565b610378565b6040516100da919061067a565b60405180910390f35b6100eb610440565b6040516100f8919061067a565b60405180910390f35b6000602052806000526040600020600091509050806000018054610124906107a3565b80601f0160208091040260200160405190810160405280929190818152602001828054610150906107a3565b801561019d5780601f106101725761010080835404028352916020019161019d565b820191906000526020600020905b81548152906001019060200180831161018057829003601f168201915b5050505050908060010180546101b2906107a3565b80601f01602080910402602001604051908101604052809291908181526020018280546101de906107a3565b801561022b5780601f106102005761010080835404028352916020019161022b565b820191906000526020600020905b81548152906001019060200180831161020e57829003601f168201915b5050505050905082565b606080600080600085815260200190815260200160002090508060000181600101818054610262906107a3565b80601f016020809104026020016040519081016040528092919081815260200182805461028e906107a3565b80156102db5780601f106102b0576101008083540402835291602001916102db565b820191906000526020600020905b8154815290600101906020018083116102be57829003601f168201915b505050505091508080546102ee906107a3565b80601f016020809104026020016040519081016040528092919081815260200182805461031a906107a3565b80156103675780601f1061033c57610100808354040283529160200191610367565b820191906000526020600020905b81548152906001019060200180831161034a57829003601f168201915b505050505090509250925050915091565b60006001600081548092919061038d906107d5565b9190505550604051806040016040528084815260200183815250600080600154815260200190815260200160002060008201518160000190805190602001906103d7929190610446565b5060208201518160010190805190602001906103f4929190610446565b509050507f6fe8543689d539ab5e51722a335f45ef3ab5bfbb9fdaf6feeed7be7262788b4a600154848460405161042d93929190610695565b60405180910390a1600154905092915050565b60015481565b828054610452906107a3565b90600052602060002090601f01602090048101928261047457600085556104bb565b82601f1061048d57805160ff19168380011785556104bb565b828001600101855582156104bb579182015b828111156104ba57825182559160200191906001019061049f565b5b5090506104c891906104cc565b5090565b5b808211156104e55760008160009055506001016104cd565b5090565b60006104fc6104f78461070b565b6106da565b90508281526020810184848401111561051457600080fd5b61051f848285610761565b509392505050565b600082601f83011261053857600080fd5b81356105488482602086016104e9565b91505092915050565b600081359050610560816108bc565b92915050565b6000806040838503121561057957600080fd5b600083013567ffffffffffffffff81111561059357600080fd5b61059f85828601610527565b925050602083013567ffffffffffffffff8111156105bc57600080fd5b6105c885828601610527565b9150509250929050565b6000602082840312156105e457600080fd5b60006105f284828501610551565b91505092915050565b60006106068261073b565b6106108185610746565b9350610620818560208601610770565b610629816108ab565b840191505092915050565b61063d81610757565b82525050565b6000604082019050818103600083015261065d81856105fb565b9050818103602083015261067181846105fb565b90509392505050565b600060208201905061068f6000830184610634565b92915050565b60006060820190506106aa6000830186610634565b81810360208301526106bc81856105fb565b905081810360408301526106d081846105fb565b9050949350505050565b6000604051905081810181811067ffffffffffffffff821117156107015761070061087c565b5b8060405250919050565b600067ffffffffffffffff8211156107265761072561087c565b5b601f19601f8301169050602081019050919050565b600081519050919050565b600082825260208201905092915050565b6000819050919050565b82818337600083830152505050565b60005b8381101561078e578082015181840152602081019050610773565b8381111561079d576000848401525b50505050565b600060028204905060018216806107bb57607f821691505b602082108114156107cf576107ce61084d565b5b50919050565b60006107e082610757565b91507fffffffffffffffffffffffffffffffffffffffffffffffffffffffffffffffff8214156108135761081261081e565b5b600182019050919050565b7f4e487b7100000000000000000000000000000000000000000000000000000000600052601160045260246000fd5b7f4e487b7100000000000000000000000000000000000000000000000000000000600052602260045260246000fd5b7f4e487b7100000000000000000000000000000000000000000000000000000000600052604160045260246000fd5b6000601f19601f8301169050919050565b6108c581610757565b81146108d057600080fd5b5056fea2646970667358221220ba17291dea02327552ba1eca4a2dbe41f7daa041f86be86ab7cac2bea6e3a0ab64736f6c63430008000033",
  "immutableReferences": {},
  "source": "// SPDX-License-Identifier: MIT\r\npragma solidity ^0.8.0;\r\n\r\ncontract SimpleStorage {\r\n    string public message;\r\n    constructor(string memory initialMessage) {\r\n        message = initialMessage;\r\n    }\r\n\r\n    function setMessage(string memory newMessage) public {\r\n        message = newMessage;\r\n    }\r\n}\r\n\r\ncontract ActivityLogger {\r\n\r\n    struct ActivityData {\r\n        string inputData;\r\n        string outputData;\r\n    }\r\n\r\n    mapping(uint => ActivityData) public activities;\r\n    uint public activityCount = 0;\r\n\r\n    event ActivityLogged(uint activityId, string inputData, string outputData);\r\n\r\n    function logActivity(string memory _inputData, string memory _outputData) public returns (uint) {\r\n        activityCount++;\r\n        activities[activityCount] = ActivityData(_inputData, _outputData);\r\n        emit ActivityLogged(activityCount, _inputData, _outputData);\r\n        return activityCount;\r\n    }\r\n\r\n    function getActivity(uint _activityId) public view returns (string memory, string memory) {\r\n        ActivityData storage activity = activities[_activityId];\r\n        return (activity.inputData, activity.outputData);\r\n    }\r\n}\r\n\r\ncontract EnrollmentContract{\r\n    uint constant private OVERBOOK_LIMIT = 20;\r\n    ActivityLogger public activityLogger;\r\n\r\n    constructor(ActivityLogger _activityLogger) {\r\n        activityLogger = _activityLogger;\r\n    }\r\n    struct Student{\r\n        string id;\r\n        string name;\r\n        string[] completedModules;\r\n        string[] enrolledModules;\r\n    }\r\n\r\n    struct Course {\r\n        string moduleCode;\r\n        uint studentSlots;\r\n        uint slotsRemaining;\r\n        string[] prerequisiteModules;\r\n    }\r\n\r\n    mapping(string => Student) public students; // Hashmap of String => Student\r\n    mapping(string => Course) public courses;\r\n    mapping(string => string[]) public overbookedStudents; // Course code => StudentId[]\r\n\r\n    event Enrolled(string studentId, string courseCode);\r\n    event Overbooked(string courseCode, string studentId);\r\n    event EnrollmentFailed(string studentId, string courseCode);\r\n\r\n\r\n    function addStudent(string memory name, string memory studentId) public {\r\n        students[studentId] = Student(studentId, name, new string[](0), new string[](0));\r\n    }\r\n\r\n    function addCourse(string memory moduleCode, uint slots, string[] memory prerequisites) public {\r\n//        require(courses[moduleCode].studentSlots == 0, \"Course already exists\");\r\n        courses[moduleCode] = Course(moduleCode, slots, slots, prerequisites);\r\n    }\r\n\r\n    function enrollStudent(string memory studentId, string memory courseCode) public  {\r\n        require(bytes(students[studentId].id).length > 0, \"Student does not exist\");\r\n        require(courses[courseCode].studentSlots > 0, \"Course does not exist\");\r\n\r\n        // Looks for the student in the blockchain\r\n        Student storage student = students[studentId];\r\n        Course storage course = courses[courseCode];\r\n\r\n        if(!isStudentEligible(studentId, courseCode)){\r\n            emit EnrollmentFailed(studentId, courseCode);\r\n            return;\r\n        }\r\n\r\n        if (course.slotsRemaining > 0){\r\n            student.enrolledModules.push(courseCode);\r\n            course.slotsRemaining--;\r\n            emit Enrolled(studentId, courseCode);\r\n        } else{\r\n            // Overbooked\r\n            uint overbookedLimit = (course.studentSlots * OVERBOOK_LIMIT) / 100;\r\n            if(overbookedStudents[courseCode].length < overbookedLimit){\r\n                overbookedStudents[courseCode].push(studentId);\r\n                emit Overbooked(courseCode, studentId);\r\n            } else {\r\n                emit EnrollmentFailed(studentId, courseCode);\r\n            }\r\n        }\r\n    }\r\n\r\n    function isStudentEligible(string memory studentId, string memory courseCode) private view returns (bool) {\r\n        Course storage course = courses[courseCode];\r\n        Student storage student = students[studentId];\r\n\r\n        for(uint i = 0; i < course.prerequisiteModules.length; i++){\r\n            bool hasCompletedModule = false;\r\n            for (uint j = 0; j < student.completedModules.length;  j++){\r\n                if(keccak256(bytes(student.completedModules[j])) == keccak256(bytes(course.prerequisiteModules[i]))){\r\n                    hasCompletedModule = true;\r\n                    break;\r\n                }\r\n            }\r\n\r\n            if(!hasCompletedModule){\r\n                return false;\r\n            }\r\n        }\r\n\r\n        return true;\r\n    }\r\n\r\n    function enrollFirstStudentInQueue(string memory courseCode) public {\r\n        require(overbookedStudents[courseCode].length > 0, \"No students in queue\");\r\n\r\n        string memory studentId = overbookedStudents[courseCode][0];\r\n        Student storage student = students[studentId];\r\n        Course storage course = courses[courseCode];\r\n\r\n        // Enroll student and remove from queue\r\n        student.enrolledModules.push(courseCode);\r\n        course.slotsRemaining--;\r\n        overbookedStudents[courseCode].pop();\r\n        emit Enrolled(studentId, courseCode);\r\n    }\r\n}\r\n",
  "sourcePath": "C:\\Users\\kmila\\IdeaProjects\\BlockChain\\my-truffle-project\\contracts\\SimpleStorage.sol",
  "compiler": {
    "name": "solc",
    "version": "0.8.0+commit.c7dfd78e.Emscripten.clang"
  },
  "schemaVersion": "3.4.16",
  "updatedAt": "2024-11-11T22:17:08.015Z",
  "devdoc": {
    "kind": "dev",
    "methods": {},
    "version": 1
  },
  "userdoc": {
    "kind": "user",
    "methods": {},
    "version": 1
  }
}