{
  "contractName": "EnrollmentContract",
  "abi": [
    {
      "inputs": [
        {
          "internalType": "string",
          "name": "initialMessage",
          "type": "string"
        }
      ],
      "stateMutability": "nonpayable",
      "type": "constructor"
    },
    {
      "anonymous": false,
      "inputs": [
        {
          "indexed": false,
          "internalType": "string",
          "name": "studentId",
          "type": "string"
        },
        {
          "indexed": false,
          "internalType": "string",
          "name": "courseCode",
          "type": "string"
        }
      ],
      "name": "Enrolled",
      "type": "event"
    },
    {
      "anonymous": false,
      "inputs": [
        {
          "indexed": false,
          "internalType": "string",
          "name": "studentId",
          "type": "string"
        },
        {
          "indexed": false,
          "internalType": "string",
          "name": "courseCode",
          "type": "string"
        }
      ],
      "name": "EnrollmentFailed",
      "type": "event"
    },
    {
      "anonymous": false,
      "inputs": [
        {
          "indexed": false,
          "internalType": "string",
          "name": "courseCode",
          "type": "string"
        },
        {
          "indexed": false,
          "internalType": "string",
          "name": "studentId",
          "type": "string"
        }
      ],
      "name": "Overbooked",
      "type": "event"
    },
    {
      "inputs": [
        {
          "internalType": "string",
          "name": "",
          "type": "string"
        }
      ],
      "name": "courses",
      "outputs": [
        {
          "internalType": "string",
          "name": "moduleCode",
          "type": "string"
        },
        {
          "internalType": "uint256",
          "name": "studentSlots",
          "type": "uint256"
        },
        {
          "internalType": "uint256",
          "name": "slotsRemaining",
          "type": "uint256"
        }
      ],
      "stateMutability": "view",
      "type": "function",
      "constant": true
    },
    {
      "inputs": [],
      "name": "message",
      "outputs": [
        {
          "internalType": "string",
          "name": "",
          "type": "string"
        }
      ],
      "stateMutability": "view",
      "type": "function",
      "constant": true
    },
    {
      "inputs": [
        {
          "internalType": "string",
          "name": "",
          "type": "string"
        },
        {
          "internalType": "uint256",
          "name": "",
          "type": "uint256"
        }
      ],
      "name": "overbookedStudents",
      "outputs": [
        {
          "internalType": "string",
          "name": "",
          "type": "string"
        }
      ],
      "stateMutability": "view",
      "type": "function",
      "constant": true
    },
    {
      "inputs": [
        {
          "internalType": "string",
          "name": "",
          "type": "string"
        }
      ],
      "name": "students",
      "outputs": [
        {
          "internalType": "string",
          "name": "id",
          "type": "string"
        },
        {
          "internalType": "string",
          "name": "name",
          "type": "string"
        }
      ],
      "stateMutability": "view",
      "type": "function",
      "constant": true
    },
    {
      "inputs": [
        {
          "internalType": "string",
          "name": "name",
          "type": "string"
        },
        {
          "internalType": "string",
          "name": "studentId",
          "type": "string"
        }
      ],
      "name": "addStudent",
      "outputs": [],
      "stateMutability": "nonpayable",
      "type": "function"
    },
    {
      "inputs": [
        {
          "internalType": "string",
          "name": "moduleCode",
          "type": "string"
        },
        {
          "internalType": "uint256",
          "name": "slots",
          "type": "uint256"
        },
        {
          "internalType": "string[]",
          "name": "prerequisites",
          "type": "string[]"
        }
      ],
      "name": "addCourse",
      "outputs": [],
      "stateMutability": "nonpayable",
      "type": "function"
    },
    {
      "inputs": [
        {
          "internalType": "string",
          "name": "studentId",
          "type": "string"
        },
        {
          "internalType": "string",
          "name": "courseCode",
          "type": "string"
        }
      ],
      "name": "enrollStudent",
      "outputs": [],
      "stateMutability": "nonpayable",
      "type": "function"
    },
    {
      "inputs": [
        {
          "internalType": "string",
          "name": "courseCode",
          "type": "string"
        }
      ],
      "name": "enrollFirstStudentInQueue",
      "outputs": [],
      "stateMutability": "nonpayable",
      "type": "function"
    }
  ],
  "bytecode": "0x60806040523480156200001157600080fd5b5060405162001bc738038062001bc7833981810160405281019062000037919062000179565b80600090805190602001906200004f92919062000057565b5050620002ef565b82805462000065906200025b565b90600052602060002090601f016020900481019282620000895760008555620000d5565b82601f10620000a457805160ff1916838001178555620000d5565b82800160010185558215620000d5579182015b82811115620000d4578251825591602001919060010190620000b7565b5b509050620000e49190620000e8565b5090565b5b8082111562000103576000816000905550600101620000e9565b5090565b60006200011e6200011884620001f2565b620001be565b9050828152602081018484840111156200013757600080fd5b6200014484828562000225565b509392505050565b600082601f8301126200015e57600080fd5b81516200017084826020860162000107565b91505092915050565b6000602082840312156200018c57600080fd5b600082015167ffffffffffffffff811115620001a757600080fd5b620001b5848285016200014c565b91505092915050565b6000604051905081810181811067ffffffffffffffff82111715620001e857620001e7620002c0565b5b8060405250919050565b600067ffffffffffffffff82111562000210576200020f620002c0565b5b601f19601f8301169050602081019050919050565b60005b838110156200024557808201518184015260208101905062000228565b8381111562000255576000848401525b50505050565b600060028204905060018216806200027457607f821691505b602082108114156200028b576200028a62000291565b5b50919050565b7f4e487b7100000000000000000000000000000000000000000000000000000000600052602260045260246000fd5b7f4e487b7100000000000000000000000000000000000000000000000000000000600052604160045260246000fd5b6118c880620002ff6000396000f3fe608060405234801561001057600080fd5b50600436106100885760003560e01c8063c7ef6bfb1161005b578063c7ef6bfb14610127578063ced47d0a14610158578063e21f37ce14610174578063e27bb1f71461019257610088565b8063261065ac1461008d5780634bf0c2b3146100a95780635d1c6dce146100c55780637323d1e1146100f7575b600080fd5b6100a760048036038101906100a29190611101565b6101ae565b005b6100c360048036038101906100be9190611142565b61044d565b005b6100df60048036038101906100da9190611101565b610779565b6040516100ee939291906114c0565b60405180910390f35b610111600480360381019061010c91906111ae565b610841565b60405161011e9190611467565b60405180910390f35b610141600480360381019061013c9190611101565b610910565b60405161014f929190611489565b60405180910390f35b610172600480360381019061016d9190611202565b610a5a565b005b61017c610aef565b6040516101899190611467565b60405180910390f35b6101ac60048036038101906101a79190611142565b610b7d565b005b60006003826040516101c09190611450565b90815260200160405180910390208054905011610212576040517f08c379a00000000000000000000000000000000000000000000000000000000081526004016102099061153e565b60405180910390fd5b60006003826040516102249190611450565b908152602001604051809103902060008154811061026b577f4e487b7100000000000000000000000000000000000000000000000000000000600052603260045260246000fd5b90600052602060002001805461028090611733565b80601f01602080910402602001604051908101604052809291908181526020018280546102ac90611733565b80156102f95780601f106102ce576101008083540402835291602001916102f9565b820191906000526020600020905b8154815290600101906020018083116102dc57829003601f168201915b5050505050905060006001826040516103129190611450565b9081526020016040518091039020905060006002846040516103349190611450565b908152602001604051809103902090508160030184908060018154018082558091505060019003906000526020600020016000909190919091509080519060200190610381929190610e96565b5080600201600081548092919061039790611709565b91905055506003846040516103ac9190611450565b90815260200160405180910390208054806103f0577f4e487b7100000000000000000000000000000000000000000000000000000000600052603160045260246000fd5b60019003818190600052602060002001600061040c9190610f1c565b90557fb303ff80d341dc1396619408153cccd9830a2a8b7b267cee3290d32686af2155838560405161043f929190611489565b60405180910390a150505050565b600060018360405161045f9190611450565b9081526020016040518091039020600001805461047b90611733565b9050116104bd576040517f08c379a00000000000000000000000000000000000000000000000000000000081526004016104b4906114fe565b60405180910390fd5b60006002826040516104cf9190611450565b90815260200160405180910390206001015411610521576040517f08c379a00000000000000000000000000000000000000000000000000000000081526004016105189061151e565b60405180910390fd5b60006001836040516105339190611450565b9081526020016040518091039020905060006002836040516105559190611450565b9081526020016040518091039020905061056f8484610d1f565b6105b3577f15b4a6e7bde636a1cdea36674a6f87d4ae7846b26928f403e213cca31542459684846040516105a4929190611489565b60405180910390a15050610775565b6000816002015411156106565781600301839080600181540180825580915050600190039060005260206000200160009091909190915090805190602001906105fd929190610e96565b5080600201600081548092919061061390611709565b91905055507fb303ff80d341dc1396619408153cccd9830a2a8b7b267cee3290d32686af21558484604051610649929190611489565b60405180910390a1610772565b600060646014836001015461066b9190611663565b6106759190611632565b9050806003856040516106889190611450565b9081526020016040518091039020805490501015610736576003846040516106b09190611450565b9081526020016040518091039020859080600181540180825580915050600190039060005260206000200160009091909190915090805190602001906106f7929190610e96565b507f2d44e0610977aa0f3d1f5afd1b74e6a25d70d9832c19908c3ffc9039f54ed7798486604051610729929190611489565b60405180910390a1610770565b7f15b4a6e7bde636a1cdea36674a6f87d4ae7846b26928f403e213cca3154245968585604051610767929190611489565b60405180910390a15b505b50505b5050565b6002818051602081018201805184825260208301602085012081835280955050505050506000915090508060000180546107b290611733565b80601f01602080910402602001604051908101604052809291908181526020018280546107de90611733565b801561082b5780601f106108005761010080835404028352916020019161082b565b820191906000526020600020905b81548152906001019060200180831161080e57829003601f168201915b5050505050908060010154908060020154905083565b600382805160208101820180518482526020830160208501208183528095505050505050818154811061087357600080fd5b9060005260206000200160009150915050805461088f90611733565b80601f01602080910402602001604051908101604052809291908181526020018280546108bb90611733565b80156109085780601f106108dd57610100808354040283529160200191610908565b820191906000526020600020905b8154815290600101906020018083116108eb57829003601f168201915b505050505081565b60018180516020810182018051848252602083016020850120818352809550505050505060009150905080600001805461094990611733565b80601f016020809104026020016040519081016040528092919081815260200182805461097590611733565b80156109c25780601f10610997576101008083540402835291602001916109c2565b820191906000526020600020905b8154815290600101906020018083116109a557829003601f168201915b5050505050908060010180546109d790611733565b80601f0160208091040260200160405190810160405280929190818152602001828054610a0390611733565b8015610a505780601f10610a2557610100808354040283529160200191610a50565b820191906000526020600020905b815481529060010190602001808311610a3357829003601f168201915b5050505050905082565b604051806080016040528084815260200183815260200183815260200182815250600284604051610a8b9190611450565b90815260200160405180910390206000820151816000019080519060200190610ab5929190610e96565b5060208201518160010155604082015181600201556060820151816003019080519060200190610ae6929190610f5c565b50905050505050565b60008054610afc90611733565b80601f0160208091040260200160405190810160405280929190818152602001828054610b2890611733565b8015610b755780601f10610b4a57610100808354040283529160200191610b75565b820191906000526020600020905b815481529060010190602001808311610b5857829003601f168201915b505050505081565b6040518060800160405280828152602001838152602001600067ffffffffffffffff811115610bd5577f4e487b7100000000000000000000000000000000000000000000000000000000600052604160045260246000fd5b604051908082528060200260200182016040528015610c0857816020015b6060815260200190600190039081610bf35790505b508152602001600067ffffffffffffffff811115610c4f577f4e487b7100000000000000000000000000000000000000000000000000000000600052604160045260246000fd5b604051908082528060200260200182016040528015610c8257816020015b6060815260200190600190039081610c6d5790505b50815250600182604051610c969190611450565b90815260200160405180910390206000820151816000019080519060200190610cc0929190610e96565b506020820151816001019080519060200190610cdd929190610e96565b506040820151816002019080519060200190610cfa929190610f5c565b506060820151816003019080519060200190610d17929190610f5c565b509050505050565b600080600283604051610d329190611450565b908152602001604051809103902090506000600185604051610d549190611450565b9081526020016040518091039020905060005b8260030180549050811015610e88576000805b8360020180549050811015610e6157846003018381548110610dc5577f4e487b7100000000000000000000000000000000000000000000000000000000600052603260045260246000fd5b90600052602060002001604051610ddc9190611439565b6040518091039020846002018281548110610e20577f4e487b7100000000000000000000000000000000000000000000000000000000600052603260045260246000fd5b90600052602060002001604051610e379190611439565b60405180910390201415610e4e5760019150610e61565b8080610e5990611765565b915050610d7a565b5080610e74576000945050505050610e90565b508080610e8090611765565b915050610d67565b506001925050505b92915050565b828054610ea290611733565b90600052602060002090601f016020900481019282610ec45760008555610f0b565b82601f10610edd57805160ff1916838001178555610f0b565b82800160010185558215610f0b579182015b82811115610f0a578251825591602001919060010190610eef565b5b509050610f189190610fbc565b5090565b508054610f2890611733565b6000825580601f10610f3a5750610f59565b601f016020900490600052602060002090810190610f589190610fbc565b5b50565b828054828255906000526020600020908101928215610fab579160200282015b82811115610faa578251829080519060200190610f9a929190610e96565b5091602001919060010190610f7c565b5b509050610fb89190610fd9565b5090565b5b80821115610fd5576000816000905550600101610fbd565b5090565b5b80821115610ff95760008181610ff09190610f1c565b50600101610fda565b5090565b600061101061100b8461158f565b61155e565b9050808382526020820190508260005b85811015611050578135850161103688826110c2565b845260208401935060208301925050600181019050611020565b5050509392505050565b600061106d611068846115bb565b61155e565b90508281526020810184848401111561108557600080fd5b6110908482856116c7565b509392505050565b600082601f8301126110a957600080fd5b81356110b9848260208601610ffd565b91505092915050565b600082601f8301126110d357600080fd5b81356110e384826020860161105a565b91505092915050565b6000813590506110fb8161187b565b92915050565b60006020828403121561111357600080fd5b600082013567ffffffffffffffff81111561112d57600080fd5b611139848285016110c2565b91505092915050565b6000806040838503121561115557600080fd5b600083013567ffffffffffffffff81111561116f57600080fd5b61117b858286016110c2565b925050602083013567ffffffffffffffff81111561119857600080fd5b6111a4858286016110c2565b9150509250929050565b600080604083850312156111c157600080fd5b600083013567ffffffffffffffff8111156111db57600080fd5b6111e7858286016110c2565b92505060206111f8858286016110ec565b9150509250929050565b60008060006060848603121561121757600080fd5b600084013567ffffffffffffffff81111561123157600080fd5b61123d868287016110c2565b935050602061124e868287016110ec565b925050604084013567ffffffffffffffff81111561126b57600080fd5b61127786828701611098565b9150509250925092565b6000815461128e81611733565b611298818661160b565b945060018216600081146112b357600181146112c4576112f7565b60ff198316865281860193506112f7565b6112cd856115eb565b60005b838110156112ef578154818901526001820191506020810190506112d0565b838801955050505b50505092915050565b600061130b82611600565b6113158185611616565b93506113258185602086016116d6565b61132e8161186a565b840191505092915050565b600061134482611600565b61134e8185611627565b935061135e8185602086016116d6565b80840191505092915050565b6000611377601683611616565b91507f53747564656e7420646f6573206e6f74206578697374000000000000000000006000830152602082019050919050565b60006113b7601583611616565b91507f436f7572736520646f6573206e6f7420657869737400000000000000000000006000830152602082019050919050565b60006113f7601483611616565b91507f4e6f2073747564656e747320696e2071756575650000000000000000000000006000830152602082019050919050565b611433816116bd565b82525050565b60006114458284611281565b915081905092915050565b600061145c8284611339565b915081905092915050565b600060208201905081810360008301526114818184611300565b905092915050565b600060408201905081810360008301526114a38185611300565b905081810360208301526114b78184611300565b90509392505050565b600060608201905081810360008301526114da8186611300565b90506114e9602083018561142a565b6114f6604083018461142a565b949350505050565b600060208201905081810360008301526115178161136a565b9050919050565b60006020820190508181036000830152611537816113aa565b9050919050565b60006020820190508181036000830152611557816113ea565b9050919050565b6000604051905081810181811067ffffffffffffffff821117156115855761158461183b565b5b8060405250919050565b600067ffffffffffffffff8211156115aa576115a961183b565b5b602082029050602081019050919050565b600067ffffffffffffffff8211156115d6576115d561183b565b5b601f19601f8301169050602081019050919050565b60008190508160005260206000209050919050565b600081519050919050565b600081905092915050565b600082825260208201905092915050565b600081905092915050565b600061163d826116bd565b9150611648836116bd565b925082611658576116576117dd565b5b828204905092915050565b600061166e826116bd565b9150611679836116bd565b9250817fffffffffffffffffffffffffffffffffffffffffffffffffffffffffffffffff04831182151516156116b2576116b16117ae565b5b828202905092915050565b6000819050919050565b82818337600083830152505050565b60005b838110156116f45780820151818401526020810190506116d9565b83811115611703576000848401525b50505050565b6000611714826116bd565b91506000821415611728576117276117ae565b5b600182039050919050565b6000600282049050600182168061174b57607f821691505b6020821081141561175f5761175e61180c565b5b50919050565b6000611770826116bd565b91507fffffffffffffffffffffffffffffffffffffffffffffffffffffffffffffffff8214156117a3576117a26117ae565b5b600182019050919050565b7f4e487b7100000000000000000000000000000000000000000000000000000000600052601160045260246000fd5b7f4e487b7100000000000000000000000000000000000000000000000000000000600052601260045260246000fd5b7f4e487b7100000000000000000000000000000000000000000000000000000000600052602260045260246000fd5b7f4e487b7100000000000000000000000000000000000000000000000000000000600052604160045260246000fd5b6000601f19601f8301169050919050565b611884816116bd565b811461188f57600080fd5b5056fea264697066735822122083e5ae94df2d7e1b758b5fd09716a3bb6f69dce29811d32dc7113a629863ced164736f6c63430008000033",
  "immutableReferences": {},
  "source": "// SPDX-License-Identifier: MIT\r\npragma solidity ^0.8.0;\r\n\r\n//contract SimpleStorage {\r\n//    string public message;\r\n//    constructor(string memory initialMessage) {\r\n//        message = initialMessage;\r\n//    }\r\n//\r\n//    function setMessage(string memory newMessage) public {\r\n//        message = newMessage;\r\n//    }\r\n//}\r\n\r\n//contract ActivityLogger {\r\n//\r\n//    struct ActivityData {\r\n//        string inputData;\r\n//        string outputData;\r\n//    }\r\n//\r\n//    mapping(uint => ActivityData) public activities;\r\n//    uint public activityCount = 0;\r\n//\r\n//    event ActivityLogged(uint activityId, string inputData, string outputData);\r\n//\r\n//    function logActivity(string memory _inputData, string memory _outputData) public returns (uint) {\r\n//        activityCount++;\r\n//        activities[activityCount] = ActivityData(_inputData, _outputData);\r\n//        emit ActivityLogged(activityCount, _inputData, _outputData);\r\n//        return activityCount;\r\n//    }\r\n//\r\n//    function getActivity(uint _activityId) public view returns (string memory, string memory) {\r\n//        ActivityData storage activity = activities[_activityId];\r\n//        return (activity.inputData, activity.outputData);\r\n//    }\r\n//}\r\n\r\ncontract EnrollmentContract{\r\n    uint constant private OVERBOOK_LIMIT = 20;\r\n    string public message;\r\n\r\n    constructor(string memory initialMessage) {\r\n        message = initialMessage;\r\n    }\r\n\r\n//    ActivityLogger public activityLogger;\r\n//\r\n//    constructor(ActivityLogger _activityLogger) {\r\n//        activityLogger = _activityLogger;\r\n//    }\r\n    struct Student{\r\n        string id;\r\n        string name;\r\n        string[] completedModules;\r\n        string[] enrolledModules;\r\n    }\r\n\r\n    struct Course {\r\n        string moduleCode;\r\n        uint studentSlots;\r\n        uint slotsRemaining;\r\n        string[] prerequisiteModules;\r\n    }\r\n\r\n    mapping(string => Student) public students; // Hashmap of String => Student\r\n    mapping(string => Course) public courses;\r\n    mapping(string => string[]) public overbookedStudents; // Course code => StudentId[]\r\n\r\n    event Enrolled(string studentId, string courseCode);\r\n    event Overbooked(string courseCode, string studentId);\r\n    event EnrollmentFailed(string studentId, string courseCode);\r\n\r\n\r\n    function addStudent(string memory name, string memory studentId) public {\r\n        students[studentId] = Student(studentId, name, new string[](0), new string[](0));\r\n    }\r\n\r\n    function addCourse(string memory moduleCode, uint slots, string[] memory prerequisites) public {\r\n//        require(courses[moduleCode].studentSlots == 0, \"Course already exists\");\r\n        courses[moduleCode] = Course(moduleCode, slots, slots, prerequisites);\r\n    }\r\n\r\n    function enrollStudent(string memory studentId, string memory courseCode) public  {\r\n        require(bytes(students[studentId].id).length > 0, \"Student does not exist\");\r\n        require(courses[courseCode].studentSlots > 0, \"Course does not exist\");\r\n\r\n        // Looks for the student in the blockchain\r\n        Student storage student = students[studentId];\r\n        Course storage course = courses[courseCode];\r\n\r\n        if(!isStudentEligible(studentId, courseCode)){\r\n            emit EnrollmentFailed(studentId, courseCode);\r\n            return;\r\n        }\r\n\r\n        if (course.slotsRemaining > 0){\r\n            student.enrolledModules.push(courseCode);\r\n            course.slotsRemaining--;\r\n            emit Enrolled(studentId, courseCode);\r\n        } else{\r\n            // Overbooked\r\n            uint overbookedLimit = (course.studentSlots * OVERBOOK_LIMIT) / 100;\r\n            if(overbookedStudents[courseCode].length < overbookedLimit){\r\n                overbookedStudents[courseCode].push(studentId);\r\n                emit Overbooked(courseCode, studentId);\r\n            } else {\r\n                emit EnrollmentFailed(studentId, courseCode);\r\n            }\r\n        }\r\n    }\r\n\r\n    function isStudentEligible(string memory studentId, string memory courseCode) private view returns (bool) {\r\n        Course storage course = courses[courseCode];\r\n        Student storage student = students[studentId];\r\n\r\n        for(uint i = 0; i < course.prerequisiteModules.length; i++){\r\n            bool hasCompletedModule = false;\r\n            for (uint j = 0; j < student.completedModules.length;  j++){\r\n                if(keccak256(bytes(student.completedModules[j])) == keccak256(bytes(course.prerequisiteModules[i]))){\r\n                    hasCompletedModule = true;\r\n                    break;\r\n                }\r\n            }\r\n\r\n            if(!hasCompletedModule){\r\n                return false;\r\n            }\r\n        }\r\n\r\n        return true;\r\n    }\r\n\r\n    function enrollFirstStudentInQueue(string memory courseCode) public {\r\n        require(overbookedStudents[courseCode].length > 0, \"No students in queue\");\r\n\r\n        string memory studentId = overbookedStudents[courseCode][0];\r\n        Student storage student = students[studentId];\r\n        Course storage course = courses[courseCode];\r\n\r\n        // Enroll student and remove from queue\r\n        student.enrolledModules.push(courseCode);\r\n        course.slotsRemaining--;\r\n        overbookedStudents[courseCode].pop();\r\n        emit Enrolled(studentId, courseCode);\r\n    }\r\n}\r\n",
  "sourcePath": "C:\\Users\\kmila\\IdeaProjects\\BlockChain\\my-truffle-project\\contracts\\SimpleStorage.sol",
  "compiler": {
    "name": "solc",
    "version": "0.8.0+commit.c7dfd78e.Emscripten.clang"
  },
  "schemaVersion": "3.4.16",
  "updatedAt": "2024-11-11T23:44:41.381Z",
  "networkType": "ethereum",
  "devdoc": {
    "kind": "dev",
    "methods": {},
    "version": 1
  },
  "userdoc": {
    "kind": "user",
    "methods": {},
    "version": 1
  }
}